:1008C300E4F50F7F381209B47F0C1209B4C3E50EA7
:1008D3009410E50D94005008E50E2480FF1209B42E
:1008E300C3E50E9410E50D94004008E50E24B0FF17
:1008F3001209B4C3E50E9420E50D9400400A7F016C
:100903001209B4E4F50DF50E1208008F0F1209AAAF
:090913007F147E0012097E80B4FD
:10080000E4FF7590FEE590B4EE0A7F31050EE50E2B
:100810007002050DE590B4DE0A7F32050EE50E701C
:1008200002050DE590B4BE0A7F33050EE50E700299
:10083000050D7590FDE590B4ED0A7F34050EE50ECB
:100840007002050DE590B4DD0A7F35050EE50E70EA
:1008500002050DE590B4BD0A7F36050EE50E700267
:10086000050D7590FBE590B4EB0A7F37050EE50E9C
:100870007002050DE590B4DB0A7F38050EE50E70B9
:1008800002050DE590B4BB0A7F39050EE50E700236
:10089000050D7590F7E590B4E70A7F2A050EE50E81
:1008A0007002050DE590B4D70A7F30050EE50E7095
:1008B00002050DE590B4B70A7F23050EE50E700220
:0208C000050D24
:0108C2002213
:06091C008B088A09890A1C
:10092200E4F50BF50CF50BF50CAB08AA09A90A8541
:100932000C82850B8312094BFF600D1209AA050C6C
:08094200E50C70E5050B80E1F6
:01094A00228A
:0A09AA008FA0D2B0120978C2B1226A
:0A09B4008FA0C2B0120978C2B12270
:06097800D2B17F0A7E00EF
:10097E00E4FDFCC3ED9FEC9E5015E4FAFB0BBB00AF
:0F098E00010ABA03F8BBE8F50DBD00010C80E4C7
:01099D002237
:0300000002099E54
:0C099E00787FE4F6D8FD75810F0208C3D5
:10094B00BB010CE58229F582E5833AF583E0225061
:10095B0006E92582F8E622BBFE06E92582F8E222AB
:0D096B00E58229F582E5833AF583E49322C5
:00000001FF
