:0A091300E4F5A0F5B012087C80FBAB
:10080000C2B2D2B3C2B4C2B57F017E007D007C000B
:100810008F0B8E0A8D098C08E4FFFEFDFCAB0BAA42
:0B0820000AA909A808D31208F64050EE
:10082B00E4750F01F50EF50DF50CE47FCE7E31FD71
:10083B00FCAB0FAA0EA90DA80CC31208F65017E5B6
:10084B000F2401F50FE4350EF50EE4350DF50DE42F
:10085B00350CF50C80D4E50B24FFF50BE50A34FFC2
:0E086B00F50AE50934FFF509E50834FFF50844
:03087900809D223D
:10087C0075A01175B008C2A0C2A1D2A2C2A3D2A405
:10088C00C2A5D2B0C2B112080075A00C75B004D2CA
:10089C00A0C2A1C2A2C2A3C2A4D2A5C2B0D2B1129C
:1008AC00080075A02275B002D2A0C2A1C2A2D2A328
:1008BC00C2A4C2A5C2B0C2B1D2B2C2B3D2B41208E1
:1008CC000675A02675B001C2A0D2A1C2A2D2A3C245
:1008DC00A4C2A5D2B0C2B1C2B2C2B3C2B4D2B57FA7
:0A08EC00017E007D007C0002081070
:03000000020907EB
:0C090700787FE4F6D8FD75810F0209131B
:1008F600EB9FF5F0EA9E42F0E99D42F0E89C45F058
:0109060022CE
:00000001FF
